:020000040800F2
:1000000008040020F1010008270800086102000828
:10001000250800085D020008210A00080000000011
:1000200000000000000000000000000001090008BE
:100030005F0200080000000029080008030900080A
:100040000B0200080B0200080B0200080B0200085C
:100050000B0200080B0200080B0200080B0200084C
:100060000B0200080B0200080B0200080B0200083C
:100070000B0200080B0200080B0200080B0200082C
:100080000B020008000000000B0200080B02000831
:100090000B0200080B0200080B0200080B0200080C
:1000A0000B0200080B0200080B0200080B020008FC
:1000B0000B0200080B0200080B0200080B020008EC
:1000C0000B0200080B0200080B0200080B020008DC
:1000D0000B0200080B0200080B0200080B020008CC
:1000E0000B0200080B0200080B0200080B020008BC
:1000F0000B0200080B0200080B02000800000000C1
:10010000000000000B020008000000000B020008C5
:100110000B020008000000000B0200080B020008A0
:100120000B0200080B0200080B0200080B0200087B
:100130000B02000800000000000000000B02000895
:100140000B0200080B020008000000000000000085
:10015000000000000000000000000000000000009F
:100160000000000000000000000000000B0200087A
:100170000B0200080000000000000000000000006A
:10018000000000000B02000800000000000000005A
:10019000000000000000000000000000000000005F
:1001A00000000000000000000B0200080B02000825
:1001B0000B0200080B0200080B0200080000000000
:1001C000000000000B02000800000000000000001A
:1001D0000B0200080B020008DFF810D000F02CF82A
:1001E00000480047410A0008AFF3008008040020DF
:1001F0000648804706480047FEE7FEE7FEE7FEE7C1
:10020000FEE7FEE7FEE7FEE7FEE7FEE7050A000879
:10021000D9010008D2B201E000F8012B491EFBD23F
:1002200070470022F6E710B513460A460446194601
:10023000FFF7F0FF204610BD064C074D06E0E068D2
:1002400040F0010394E8070098471034AC42F6D31D
:10025000FFF7C6FFEC0A00080C0B0008FEE770472A
:10026000FEE70000044908B5CA6C0243CA64C96CC1
:100270000140009108BD000000100240F0B50A687E
:100280000F2692FAA2F2B2FA82F303248AE0012541
:100290009D402A407ED04D68012D01D0022D20D1F5
:1002A0008D68876892FAA2FCBCFA8CFC4FEA4C0E6F
:1002B00004FA0EFC27EA0C0792FAA2FCBCFA8CFCAA
:1002C0004FEA4C0C05FA0CF52F438760CF680D6898
:1002D000D0F804C02CEA050C7D434CEA050CC0F8AC
:1002E00004C00F69D0F80CC092FAA2F5B5FA85F5F2
:1002F0004FEA450E04FA0EF52CEA050C92FAA2F527
:10030000B5FA85F56D00AF404CEA070CC0F80CC09B
:100310004D68022D2FD1FF2A15D8D1F814C0056AD7
:1003200092FAA2F7B7FA87F7BF0006FA07F7BD43BC
:1003300092FAA2F7B7FA87F7BF000CFA07FC45EA72
:100340000C05056217E0D1F814E0476A150A95FA22
:10035000A5FCBCFA8CFC4FEA8C0C06FA0CFC95FA56
:10036000A5F5B5FA85F5AD0027EA0C070EFA05FEEE
:1003700047EA0E0747624D68076892FAA2FCBCFA8A
:100380008CFC4FEA4C0C04FA0CFE27EA0E0792FA9A
:10039000A2F200E005E0B2FA82F2520095402F434B
:1003A00007605B1C0A6832FA03F57FF470AF002027
:1003B000F0BD10B5026822F001020260D1E90232FC
:1003C000046843EA022224F4F854144304604A689F
:1003D0000261026842F001020260826822F4004277
:1003E00082608B690A6984681A436FF30A041443B4
:1003F00084600A691AB1826842F4004282600A6825
:10040000036823F44013134303604969426822F4EC
:1004100000420A434260002010BD4FF47A71B0FBE5
:10042000F1F14FF0E020491E416100218161052179
:100430000161704710B50024C02823D11248D0F8BC
:10044000880000F0C00040F440004038B0F54000A3
:100450000AD040280CD080280FD000F017FA00F006
:10046000E5F900F0F3F901E000F010FA044609E0C4
:1004700000F068F830B1054C04E000F06BF808B10A
:100480004FF40044204610BD001002400024F40048
:1004900070B5002429492A4D4FF40046032804D0A2
:1004A0000C281AD030282FD040E0D1F888006FF403
:1004B000403100F0030040F4403040180AD00128D9
:1004C00036D002282ED000F0E1F900F0AFF900F0AC
:1004D000CDF917E000F0DAF914E0D1F8880000F067
:1004E0000C0040F44020001FB0F54020F2D004285A
:1004F0001ED0082816D000BF00F0C8F900F096F909
:1005000000F0A4F9044611E0D1F8880000F03000B2
:1005100040F440101038B0F54010DBD0102807D060
:100520002028E9D100F016F800B13446204670BD0D
:1005300000F008F80028F9D02C46F7E70010024038
:100540000024F40002480068C0F3802070470000D7
:10055000001002400248D0F89000C0F340007047FD
:100560000010024003498A6822F0F00202438A60C8
:100570007047000000100240014908607047000009
:10058000000000202DE9F041044600680D460126D8
:1005900010F0010F4CD12969A868EA69084369691C
:1005A0001143084321682B4A114008432060E86842
:1005B000616821F4405101436160A869A16821F498
:1005C00040710143A1602448844201D1032008E026
:1005D0002248844201D10C2003E02148844203D107
:1005E0003020FFF755FF05E01E48844219D1C02096
:1005F000FFF720FFA8B1696899B12A680026EB6966
:100600000B2A0ED8184FD2B2B3F5004F57F822205C
:10061000B0FBF2F00FD000EB5100B0FBF1F080B274
:10062000E0602888E16A80B221F00F010143E162B5
:100630003046BDE8F081400000EB5100B0FBF1F026
:1006400081B24FF6F07201EA0200C1F342010843A1
:10065000E6E70000F369FFEF003801400044004086
:1006600000480040004C0040A40A000810B50420D7
:10067000FFF7F8FDBDE810400120FFF7F3BD0000D3
:100680002DE9F0418EB01C2106A8FFF7CAFD182104
:100690006846FFF7C6FD294CE06C40F00100E064BD
:1006A000E06C022500F001000D904FF40050CDE900
:1006B00000050126CDE9025604274FF0904869460F
:1006C0004046CDE90467FFF7D9FD6803CDE9000591
:1006D000CDE9025669464046CDE90467FFF7CEFDF5
:1006E000A06D40F40010A065A06D154900F4001045
:1006F0000D900020CDE90601124C089009900A9057
:100700000B900C9006A92046FFF753FE606840F05E
:1007100000706060E06840F2FE718843E060E0686D
:1007200020F40040E060206820F400202060206871
:1007300020F4003020600EB0BDE8F08100100240CF
:10074000DFC4A02000540040F0B58FB0202106A8DF
:10075000FFF767FD18216846FFF763FD2E48016E1D
:1007600041F480410166016E01F480410E91C16C3B
:1007700041F00401C164C06C022400F004000E903A
:10078000102000258DE831000726244FCDE90456BE
:10079000694638460395FFF771FD20208DE831004A
:1007A000CDE90456694638460395FFF767FD4FF4D7
:1007B000E130CDE906500C20CDE90A50184C0895DF
:1007C00009950C9506A920460D95FFF7DBFEA0685C
:1007D00065F35F70A060A06820F06060A060206892
:1007E00020F000502060606820F490406060A068B5
:1007F00020F02A00A060206840F001002060E0693D
:10080000C0F340500028FAD0E069C0F380500028BF
:10081000F5D00FB0F0BD0000001002400008004805
:1008200000380140FEE7FEE770470000054989688F
:10083000054A01F0F0010909515C01F01F01C840AF
:100840007047000000100240D40A0008054989687A
:10085000054A01F4E06102EB1121097801F01F0162
:10086000C840704700100240E40A00080549896842
:10087000054A01F4605102EBD121097801F01F0112
:10088000C840704700100240E40A0008074880682A
:1008900000F00C010648042906D0082903D00C29D1
:1008A00002D100F009B80348704700000010024070
:1008B0000024F40000127A000F49C86800F0030217
:1008C0000E48022A02D0032A00D14010CA68C2F39F
:1008D00006224243C868C96800F0F003012000EB1B
:1008E0001313B2FBF3F201F0C06100EB5160400062
:1008F000B2FBF0F070470000001002400024F4004A
:100900007047704770B53848016821F00F0141F019
:1009100003010160016801F00F010329FAD1334896
:10092000016821F4C06141F400710160304C20681D
:1009300040F4807020602068C0F380200028FAD046
:10094000606820F0FE4040F080406060E16841F265
:100950000200284A11400843E060E06840F08070DF
:10096000E060206840F0807020602068C0F3406044
:100970000028FAD0A06840F00300A0608020FFF7B4
:10098000F1FDA06800F00C000C28FAD11A480168AB
:1009900041F0807101601948016841F00101016076
:1009A0000021416041686429FCD30020FFF7DAFD93
:1009B000A06820F4E060A060A06820F46050A0600F
:1009C0000F4D2846FFF729FD2846FFF7D5FDD4F83F
:1009D000880020F00300C4F88800054888300168CA
:1009E00021F44051016070BD0020024000700040C1
:1009F000001002400C80FFF9FCED00E0001000E068
:100A00000020A1070548016841F470010160034915
:100A10004FF00060803908607047000088ED00E00A
:100A2000FEE702E008C8121F08C1002AFAD1704789
:100A30007047002001E001C1121F002AFBD170475E
:100A4000144808B5016E41F001010166016E01F024
:100A500001010091816D41F080518165806D0E49E9
:100A600000F08050009008684FF6FF0210400B4ADB
:100A700040F44070104308600948816841F48041A7
:100A80008160FFF73FFFFFF7F1FDFFF7F9FDFFF78B
:100A90005BFEFEE7001002400CED00E00000FA05EE
:100AA000007000400100000002000000040000008F
:100AB00006000000080000000A0000000C00000012
:100AC0001000000020000000400000008000000036
:100AD000000100000000000000000000010203040B
:100AE0000607080900000000010203040C0B0008BF
:100AF0000000002004000000220A0008100B00087B
:100B00000400002004040000320A00080024F4005D
:04000005080001D915
:00000001FF
